{
  "_format": "hh-sol-artifact-1",
  "contractName": "StudentRegistry",
  "sourceName": "contracts/StudentRegistry.sol",
  "abi": [
    {
      "inputs": [],
      "stateMutability": "nonpayable",
      "type": "constructor"
    },
    {
      "anonymous": false,
      "inputs": [
        {
          "indexed": true,
          "internalType": "address",
          "name": "studentAddress",
          "type": "address"
        },
        {
          "indexed": false,
          "internalType": "string",
          "name": "name",
          "type": "string"
        },
        {
          "indexed": false,
          "internalType": "uint256",
          "name": "RollNumber",
          "type": "uint256"
        }
      ],
      "name": "StudentRegistered",
      "type": "event"
    },
    {
      "inputs": [
        {
          "internalType": "address",
          "name": "_studentAddress",
          "type": "address"
        }
      ],
      "name": "getStudent",
      "outputs": [
        {
          "internalType": "string",
          "name": "",
          "type": "string"
        },
        {
          "internalType": "uint256",
          "name": "",
          "type": "uint256"
        }
      ],
      "stateMutability": "view",
      "type": "function"
    },
    {
      "inputs": [],
      "name": "owner",
      "outputs": [
        {
          "internalType": "address",
          "name": "",
          "type": "address"
        }
      ],
      "stateMutability": "view",
      "type": "function"
    },
    {
      "inputs": [
        {
          "internalType": "string",
          "name": "_name",
          "type": "string"
        },
        {
          "internalType": "uint256",
          "name": "_rollNumber",
          "type": "uint256"
        }
      ],
      "name": "registerStudent",
      "outputs": [],
      "stateMutability": "nonpayable",
      "type": "function"
    },
    {
      "inputs": [
        {
          "internalType": "address",
          "name": "",
          "type": "address"
        }
      ],
      "name": "students",
      "outputs": [
        {
          "internalType": "string",
          "name": "name",
          "type": "string"
        },
        {
          "internalType": "uint256",
          "name": "RollNumber",
          "type": "uint256"
        }
      ],
      "stateMutability": "view",
      "type": "function"
    }
  ],
  "bytecode": "0x6080604052348015600f57600080fd5b50336000806101000a81548173ffffffffffffffffffffffffffffffffffffffff021916908373ffffffffffffffffffffffffffffffffffffffff160217905550610c108061005f6000396000f3fe608060405234801561001057600080fd5b506004361061004c5760003560e01c806312a0b744146100515780636b7b44d71461006d5780638da5cb5b1461009e578063a6c807a9146100bc575b600080fd5b61006b6004803603810190610066919061062f565b6100ed565b005b610087600480360381019061008291906106e9565b610246565b6040516100959291906107a4565b60405180910390f35b6100a66103cf565b6040516100b391906107e3565b60405180910390f35b6100d660048036038101906100d191906106e9565b6103f3565b6040516100e49291906107a4565b60405180910390f35b60008054906101000a900473ffffffffffffffffffffffffffffffffffffffff1673ffffffffffffffffffffffffffffffffffffffff163373ffffffffffffffffffffffffffffffffffffffff161461017b576040517f08c379a000000000000000000000000000000000000000000000000000000000815260040161017290610870565b60405180910390fd5b604051806040016040528083815260200182815250600160003373ffffffffffffffffffffffffffffffffffffffff1673ffffffffffffffffffffffffffffffffffffffff16815260200190815260200160002060008201518160000190816101e49190610a9c565b50602082015181600101559050503373ffffffffffffffffffffffffffffffffffffffff167f9c9948e5540cad013bb3d06dd108feb894f222ad978608c957d9bd55a5c564e1838360405161023a9291906107a4565b60405180910390a25050565b60606000826000600160008373ffffffffffffffffffffffffffffffffffffffff1673ffffffffffffffffffffffffffffffffffffffff16815260200190815260200160002060010154116102d0576040517f08c379a00000000000000000000000000000000000000000000000000000000081526004016102c790610bba565b60405180910390fd5b6000600160008673ffffffffffffffffffffffffffffffffffffffff1673ffffffffffffffffffffffffffffffffffffffff16815260200190815260200160002060405180604001604052908160008201805461032c906108bf565b80601f0160208091040260200160405190810160405280929190818152602001828054610358906108bf565b80156103a55780601f1061037a576101008083540402835291602001916103a5565b820191906000526020600020905b81548152906001019060200180831161038857829003601f168201915b50505050508152602001600182015481525050905080600001518160200151935093505050915091565b60008054906101000a900473ffffffffffffffffffffffffffffffffffffffff1681565b6001602052806000526040600020600091509050806000018054610416906108bf565b80601f0160208091040260200160405190810160405280929190818152602001828054610442906108bf565b801561048f5780601f106104645761010080835404028352916020019161048f565b820191906000526020600020905b81548152906001019060200180831161047257829003601f168201915b5050505050908060010154905082565b6000604051905090565b600080fd5b600080fd5b600080fd5b600080fd5b6000601f19601f8301169050919050565b7f4e487b7100000000000000000000000000000000000000000000000000000000600052604160045260246000fd5b610506826104bd565b810181811067ffffffffffffffff82111715610525576105246104ce565b5b80604052505050565b600061053861049f565b905061054482826104fd565b919050565b600067ffffffffffffffff821115610564576105636104ce565b5b61056d826104bd565b9050602081019050919050565b82818337600083830152505050565b600061059c61059784610549565b61052e565b9050828152602081018484840111156105b8576105b76104b8565b5b6105c384828561057a565b509392505050565b600082601f8301126105e0576105df6104b3565b5b81356105f0848260208601610589565b91505092915050565b6000819050919050565b61060c816105f9565b811461061757600080fd5b50565b60008135905061062981610603565b92915050565b60008060408385031215610646576106456104a9565b5b600083013567ffffffffffffffff811115610664576106636104ae565b5b610670858286016105cb565b92505060206106818582860161061a565b9150509250929050565b600073ffffffffffffffffffffffffffffffffffffffff82169050919050565b60006106b68261068b565b9050919050565b6106c6816106ab565b81146106d157600080fd5b50565b6000813590506106e3816106bd565b92915050565b6000602082840312156106ff576106fe6104a9565b5b600061070d848285016106d4565b91505092915050565b600081519050919050565b600082825260208201905092915050565b60005b83811015610750578082015181840152602081019050610735565b60008484015250505050565b600061076782610716565b6107718185610721565b9350610781818560208601610732565b61078a816104bd565b840191505092915050565b61079e816105f9565b82525050565b600060408201905081810360008301526107be818561075c565b90506107cd6020830184610795565b9392505050565b6107dd816106ab565b82525050565b60006020820190506107f860008301846107d4565b92915050565b7f4f6e6c79206f776e65722063616e2063616c6c20746869732066756e6374696f60008201527f6e00000000000000000000000000000000000000000000000000000000000000602082015250565b600061085a602183610721565b9150610865826107fe565b604082019050919050565b600060208201905081810360008301526108898161084d565b9050919050565b7f4e487b7100000000000000000000000000000000000000000000000000000000600052602260045260246000fd5b600060028204905060018216806108d757607f821691505b6020821081036108ea576108e9610890565b5b50919050565b60008190508160005260206000209050919050565b60006020601f8301049050919050565b600082821b905092915050565b6000600883026109527fffffffffffffffffffffffffffffffffffffffffffffffffffffffffffffffff82610915565b61095c8683610915565b95508019841693508086168417925050509392505050565b6000819050919050565b600061099961099461098f846105f9565b610974565b6105f9565b9050919050565b6000819050919050565b6109b38361097e565b6109c76109bf826109a0565b848454610922565b825550505050565b600090565b6109dc6109cf565b6109e78184846109aa565b505050565b5b81811015610a0b57610a006000826109d4565b6001810190506109ed565b5050565b601f821115610a5057610a21816108f0565b610a2a84610905565b81016020851015610a39578190505b610a4d610a4585610905565b8301826109ec565b50505b505050565b600082821c905092915050565b6000610a7360001984600802610a55565b1980831691505092915050565b6000610a8c8383610a62565b9150826002028217905092915050565b610aa582610716565b67ffffffffffffffff811115610abe57610abd6104ce565b5b610ac882546108bf565b610ad3828285610a0f565b600060209050601f831160018114610b065760008415610af4578287015190505b610afe8582610a80565b865550610b66565b601f198416610b14866108f0565b60005b82811015610b3c57848901518255600182019150602085019450602081019050610b17565b86831015610b595784890151610b55601f891682610a62565b8355505b6001600288020188555050505b505050505050565b7f53747564656e7420646f6573206e6f7420657869737400000000000000000000600082015250565b6000610ba4601683610721565b9150610baf82610b6e565b602082019050919050565b60006020820190508181036000830152610bd381610b97565b905091905056fea2646970667358221220d297e99635a92007e37512f5995bae0ba77f0c5e4066326ae6c15d1eeac03e3964736f6c634300081c0033",
  "linkReferences": {},
  "deployedLinkReferences": {}
}